{
	"data": {
		"bytecode": {
			"linkReferences": {},
			"object": "6080604052676124fee993bc00005f553480156019575f80fd5b506105a8806100275f395ff3fe60806040526004361061003e575f3560e01c8063953b8fb814610042578063b88a802f1461006c578063d0e30db014610082578063dfbf53ae1461008c575b5f80fd5b34801561004d575f80fd5b506100566100b6565b6040516100639190610310565b60405180910390f35b348015610077575f80fd5b506100806100bb565b005b61008a6101f5565b005b348015610097575f80fd5b506100a06102d3565b6040516100ad9190610368565b60405180910390f35b5f5481565b60015f9054906101000a900473ffffffffffffffffffffffffffffffffffffffff1673ffffffffffffffffffffffffffffffffffffffff163373ffffffffffffffffffffffffffffffffffffffff161461014a576040517f08c379a0000000000000000000000000000000000000000000000000000000008152600401610141906103db565b60405180910390fd5b5f3373ffffffffffffffffffffffffffffffffffffffff164760405161016f90610426565b5f6040518083038185875af1925050503d805f81146101a9576040519150601f19603f3d011682016040523d82523d5f602084013e6101ae565b606091505b50509050806101f2576040517f08c379a00000000000000000000000000000000000000000000000000000000081526004016101e990610484565b60405180910390fd5b50565b670de0b6b3a7640000341461023f576040517f08c379a0000000000000000000000000000000000000000000000000000000008152600401610236906104ec565b60405180910390fd5b5f4790505f54811115610287576040517f08c379a000000000000000000000000000000000000000000000000000000000815260040161027e90610554565b60405180910390fd5b5f5481036102d0573360015f6101000a81548173ffffffffffffffffffffffffffffffffffffffff021916908373ffffffffffffffffffffffffffffffffffffffff1602179055505b50565b60015f9054906101000a900473ffffffffffffffffffffffffffffffffffffffff1681565b5f819050919050565b61030a816102f8565b82525050565b5f6020820190506103235f830184610301565b92915050565b5f73ffffffffffffffffffffffffffffffffffffffff82169050919050565b5f61035282610329565b9050919050565b61036281610348565b82525050565b5f60208201905061037b5f830184610359565b92915050565b5f82825260208201905092915050565b7f4e6f742077696e6e6572000000000000000000000000000000000000000000005f82015250565b5f6103c5600a83610381565b91506103d082610391565b602082019050919050565b5f6020820190508181035f8301526103f2816103b9565b9050919050565b5f81905092915050565b50565b5f6104115f836103f9565b915061041c82610403565b5f82019050919050565b5f61043082610406565b9150819050919050565b7f4661696c656420746f2073656e642045746865720000000000000000000000005f82015250565b5f61046e601483610381565b91506104798261043a565b602082019050919050565b5f6020820190508181035f83015261049b81610462565b9050919050565b7f596f752063616e206f6e6c792073656e642031204574686572000000000000005f82015250565b5f6104d6601983610381565b91506104e1826104a2565b602082019050919050565b5f6020820190508181035f830152610503816104ca565b9050919050565b7f47616d65206973206f76657200000000000000000000000000000000000000005f82015250565b5f61053e600c83610381565b91506105498261050a565b602082019050919050565b5f6020820190508181035f83015261056b81610532565b905091905056fea26469706673582212201d27d5eb946deba276bfac82f4f6facb718913296a6c4fa96db9925cc7ca965564736f6c634300081a0033",
			"opcodes": "PUSH1 0x80 PUSH1 0x40 MSTORE PUSH8 0x6124FEE993BC0000 PUSH0 SSTORE CALLVALUE DUP1 ISZERO PUSH1 0x19 JUMPI PUSH0 DUP1 REVERT JUMPDEST POP PUSH2 0x5A8 DUP1 PUSH2 0x27 PUSH0 CODECOPY PUSH0 RETURN INVALID PUSH1 0x80 PUSH1 0x40 MSTORE PUSH1 0x4 CALLDATASIZE LT PUSH2 0x3E JUMPI PUSH0 CALLDATALOAD PUSH1 0xE0 SHR DUP1 PUSH4 0x953B8FB8 EQ PUSH2 0x42 JUMPI DUP1 PUSH4 0xB88A802F EQ PUSH2 0x6C JUMPI DUP1 PUSH4 0xD0E30DB0 EQ PUSH2 0x82 JUMPI DUP1 PUSH4 0xDFBF53AE EQ PUSH2 0x8C JUMPI JUMPDEST PUSH0 DUP1 REVERT JUMPDEST CALLVALUE DUP1 ISZERO PUSH2 0x4D JUMPI PUSH0 DUP1 REVERT JUMPDEST POP PUSH2 0x56 PUSH2 0xB6 JUMP JUMPDEST PUSH1 0x40 MLOAD PUSH2 0x63 SWAP2 SWAP1 PUSH2 0x310 JUMP JUMPDEST PUSH1 0x40 MLOAD DUP1 SWAP2 SUB SWAP1 RETURN JUMPDEST CALLVALUE DUP1 ISZERO PUSH2 0x77 JUMPI PUSH0 DUP1 REVERT JUMPDEST POP PUSH2 0x80 PUSH2 0xBB JUMP JUMPDEST STOP JUMPDEST PUSH2 0x8A PUSH2 0x1F5 JUMP JUMPDEST STOP JUMPDEST CALLVALUE DUP1 ISZERO PUSH2 0x97 JUMPI PUSH0 DUP1 REVERT JUMPDEST POP PUSH2 0xA0 PUSH2 0x2D3 JUMP JUMPDEST PUSH1 0x40 MLOAD PUSH2 0xAD SWAP2 SWAP1 PUSH2 0x368 JUMP JUMPDEST PUSH1 0x40 MLOAD DUP1 SWAP2 SUB SWAP1 RETURN JUMPDEST PUSH0 SLOAD DUP2 JUMP JUMPDEST PUSH1 0x1 PUSH0 SWAP1 SLOAD SWAP1 PUSH2 0x100 EXP SWAP1 DIV PUSH20 0xFFFFFFFFFFFFFFFFFFFFFFFFFFFFFFFFFFFFFFFF AND PUSH20 0xFFFFFFFFFFFFFFFFFFFFFFFFFFFFFFFFFFFFFFFF AND CALLER PUSH20 0xFFFFFFFFFFFFFFFFFFFFFFFFFFFFFFFFFFFFFFFF AND EQ PUSH2 0x14A JUMPI PUSH1 0x40 MLOAD PUSH32 0x8C379A000000000000000000000000000000000000000000000000000000000 DUP2 MSTORE PUSH1 0x4 ADD PUSH2 0x141 SWAP1 PUSH2 0x3DB JUMP JUMPDEST PUSH1 0x40 MLOAD DUP1 SWAP2 SUB SWAP1 REVERT JUMPDEST PUSH0 CALLER PUSH20 0xFFFFFFFFFFFFFFFFFFFFFFFFFFFFFFFFFFFFFFFF AND SELFBALANCE PUSH1 0x40 MLOAD PUSH2 0x16F SWAP1 PUSH2 0x426 JUMP JUMPDEST PUSH0 PUSH1 0x40 MLOAD DUP1 DUP4 SUB DUP2 DUP6 DUP8 GAS CALL SWAP3 POP POP POP RETURNDATASIZE DUP1 PUSH0 DUP2 EQ PUSH2 0x1A9 JUMPI PUSH1 0x40 MLOAD SWAP2 POP PUSH1 0x1F NOT PUSH1 0x3F RETURNDATASIZE ADD AND DUP3 ADD PUSH1 0x40 MSTORE RETURNDATASIZE DUP3 MSTORE RETURNDATASIZE PUSH0 PUSH1 0x20 DUP5 ADD RETURNDATACOPY PUSH2 0x1AE JUMP JUMPDEST PUSH1 0x60 SWAP2 POP JUMPDEST POP POP SWAP1 POP DUP1 PUSH2 0x1F2 JUMPI PUSH1 0x40 MLOAD PUSH32 0x8C379A000000000000000000000000000000000000000000000000000000000 DUP2 MSTORE PUSH1 0x4 ADD PUSH2 0x1E9 SWAP1 PUSH2 0x484 JUMP JUMPDEST PUSH1 0x40 MLOAD DUP1 SWAP2 SUB SWAP1 REVERT JUMPDEST POP JUMP JUMPDEST PUSH8 0xDE0B6B3A7640000 CALLVALUE EQ PUSH2 0x23F JUMPI PUSH1 0x40 MLOAD PUSH32 0x8C379A000000000000000000000000000000000000000000000000000000000 DUP2 MSTORE PUSH1 0x4 ADD PUSH2 0x236 SWAP1 PUSH2 0x4EC JUMP JUMPDEST PUSH1 0x40 MLOAD DUP1 SWAP2 SUB SWAP1 REVERT JUMPDEST PUSH0 SELFBALANCE SWAP1 POP PUSH0 SLOAD DUP2 GT ISZERO PUSH2 0x287 JUMPI PUSH1 0x40 MLOAD PUSH32 0x8C379A000000000000000000000000000000000000000000000000000000000 DUP2 MSTORE PUSH1 0x4 ADD PUSH2 0x27E SWAP1 PUSH2 0x554 JUMP JUMPDEST PUSH1 0x40 MLOAD DUP1 SWAP2 SUB SWAP1 REVERT JUMPDEST PUSH0 SLOAD DUP2 SUB PUSH2 0x2D0 JUMPI CALLER PUSH1 0x1 PUSH0 PUSH2 0x100 EXP DUP2 SLOAD DUP2 PUSH20 0xFFFFFFFFFFFFFFFFFFFFFFFFFFFFFFFFFFFFFFFF MUL NOT AND SWAP1 DUP4 PUSH20 0xFFFFFFFFFFFFFFFFFFFFFFFFFFFFFFFFFFFFFFFF AND MUL OR SWAP1 SSTORE POP JUMPDEST POP JUMP JUMPDEST PUSH1 0x1 PUSH0 SWAP1 SLOAD SWAP1 PUSH2 0x100 EXP SWAP1 DIV PUSH20 0xFFFFFFFFFFFFFFFFFFFFFFFFFFFFFFFFFFFFFFFF AND DUP2 JUMP JUMPDEST PUSH0 DUP2 SWAP1 POP SWAP2 SWAP1 POP JUMP JUMPDEST PUSH2 0x30A DUP2 PUSH2 0x2F8 JUMP JUMPDEST DUP3 MSTORE POP POP JUMP JUMPDEST PUSH0 PUSH1 0x20 DUP3 ADD SWAP1 POP PUSH2 0x323 PUSH0 DUP4 ADD DUP5 PUSH2 0x301 JUMP JUMPDEST SWAP3 SWAP2 POP POP JUMP JUMPDEST PUSH0 PUSH20 0xFFFFFFFFFFFFFFFFFFFFFFFFFFFFFFFFFFFFFFFF DUP3 AND SWAP1 POP SWAP2 SWAP1 POP JUMP JUMPDEST PUSH0 PUSH2 0x352 DUP3 PUSH2 0x329 JUMP JUMPDEST SWAP1 POP SWAP2 SWAP1 POP JUMP JUMPDEST PUSH2 0x362 DUP2 PUSH2 0x348 JUMP JUMPDEST DUP3 MSTORE POP POP JUMP JUMPDEST PUSH0 PUSH1 0x20 DUP3 ADD SWAP1 POP PUSH2 0x37B PUSH0 DUP4 ADD DUP5 PUSH2 0x359 JUMP JUMPDEST SWAP3 SWAP2 POP POP JUMP JUMPDEST PUSH0 DUP3 DUP3 MSTORE PUSH1 0x20 DUP3 ADD SWAP1 POP SWAP3 SWAP2 POP POP JUMP JUMPDEST PUSH32 0x4E6F742077696E6E657200000000000000000000000000000000000000000000 PUSH0 DUP3 ADD MSTORE POP JUMP JUMPDEST PUSH0 PUSH2 0x3C5 PUSH1 0xA DUP4 PUSH2 0x381 JUMP JUMPDEST SWAP2 POP PUSH2 0x3D0 DUP3 PUSH2 0x391 JUMP JUMPDEST PUSH1 0x20 DUP3 ADD SWAP1 POP SWAP2 SWAP1 POP JUMP JUMPDEST PUSH0 PUSH1 0x20 DUP3 ADD SWAP1 POP DUP2 DUP2 SUB PUSH0 DUP4 ADD MSTORE PUSH2 0x3F2 DUP2 PUSH2 0x3B9 JUMP JUMPDEST SWAP1 POP SWAP2 SWAP1 POP JUMP JUMPDEST PUSH0 DUP2 SWAP1 POP SWAP3 SWAP2 POP POP JUMP JUMPDEST POP JUMP JUMPDEST PUSH0 PUSH2 0x411 PUSH0 DUP4 PUSH2 0x3F9 JUMP JUMPDEST SWAP2 POP PUSH2 0x41C DUP3 PUSH2 0x403 JUMP JUMPDEST PUSH0 DUP3 ADD SWAP1 POP SWAP2 SWAP1 POP JUMP JUMPDEST PUSH0 PUSH2 0x430 DUP3 PUSH2 0x406 JUMP JUMPDEST SWAP2 POP DUP2 SWAP1 POP SWAP2 SWAP1 POP JUMP JUMPDEST PUSH32 0x4661696C656420746F2073656E64204574686572000000000000000000000000 PUSH0 DUP3 ADD MSTORE POP JUMP JUMPDEST PUSH0 PUSH2 0x46E PUSH1 0x14 DUP4 PUSH2 0x381 JUMP JUMPDEST SWAP2 POP PUSH2 0x479 DUP3 PUSH2 0x43A JUMP JUMPDEST PUSH1 0x20 DUP3 ADD SWAP1 POP SWAP2 SWAP1 POP JUMP JUMPDEST PUSH0 PUSH1 0x20 DUP3 ADD SWAP1 POP DUP2 DUP2 SUB PUSH0 DUP4 ADD MSTORE PUSH2 0x49B DUP2 PUSH2 0x462 JUMP JUMPDEST SWAP1 POP SWAP2 SWAP1 POP JUMP JUMPDEST PUSH32 0x596F752063616E206F6E6C792073656E64203120457468657200000000000000 PUSH0 DUP3 ADD MSTORE POP JUMP JUMPDEST PUSH0 PUSH2 0x4D6 PUSH1 0x19 DUP4 PUSH2 0x381 JUMP JUMPDEST SWAP2 POP PUSH2 0x4E1 DUP3 PUSH2 0x4A2 JUMP JUMPDEST PUSH1 0x20 DUP3 ADD SWAP1 POP SWAP2 SWAP1 POP JUMP JUMPDEST PUSH0 PUSH1 0x20 DUP3 ADD SWAP1 POP DUP2 DUP2 SUB PUSH0 DUP4 ADD MSTORE PUSH2 0x503 DUP2 PUSH2 0x4CA JUMP JUMPDEST SWAP1 POP SWAP2 SWAP1 POP JUMP JUMPDEST PUSH32 0x47616D65206973206F7665720000000000000000000000000000000000000000 PUSH0 DUP3 ADD MSTORE POP JUMP JUMPDEST PUSH0 PUSH2 0x53E PUSH1 0xC DUP4 PUSH2 0x381 JUMP JUMPDEST SWAP2 POP PUSH2 0x549 DUP3 PUSH2 0x50A JUMP JUMPDEST PUSH1 0x20 DUP3 ADD SWAP1 POP SWAP2 SWAP1 POP JUMP JUMPDEST PUSH0 PUSH1 0x20 DUP3 ADD SWAP1 POP DUP2 DUP2 SUB PUSH0 DUP4 ADD MSTORE PUSH2 0x56B DUP2 PUSH2 0x532 JUMP JUMPDEST SWAP1 POP SWAP2 SWAP1 POP JUMP INVALID LOG2 PUSH5 0x6970667358 0x22 SLT KECCAK256 SAR 0x27 0xD5 0xEB SWAP5 PUSH14 0xEBA276BFAC82F4F6FACB71891329 PUSH11 0x6C4FA96DB9925CC7CA9655 PUSH5 0x736F6C6343 STOP ADDMOD BYTE STOP CALLER "
		},
		"gasEstimates": {
			"creation": {
				"codeDepositCost": "289600",
				"executionCost": "22434",
				"totalCost": "312034"
			},
			"external": {
				"claimReward()": "infinite",
				"deposit()": "28689",
				"targetAmount()": "2402",
				"winner()": "2552"
			}
		},
		"methodIdentifiers": {
			"claimReward()": "b88a802f",
			"deposit()": "d0e30db0",
			"targetAmount()": "953b8fb8",
			"winner()": "dfbf53ae"
		}
	},
	"abi": [
		{
			"inputs": [],
			"name": "claimReward",
			"outputs": [],
			"stateMutability": "nonpayable",
			"type": "function"
		},
		{
			"inputs": [],
			"name": "deposit",
			"outputs": [],
			"stateMutability": "payable",
			"type": "function"
		},
		{
			"inputs": [],
			"name": "targetAmount",
			"outputs": [
				{
					"internalType": "uint256",
					"name": "",
					"type": "uint256"
				}
			],
			"stateMutability": "view",
			"type": "function"
		},
		{
			"inputs": [],
			"name": "winner",
			"outputs": [
				{
					"internalType": "address",
					"name": "",
					"type": "address"
				}
			],
			"stateMutability": "view",
			"type": "function"
		}
	]
}